S00F0000655F66667432642E737265637B
S30900000000E82C0000E2
S3150000002800000000000000000000000000000000C2
S3150000003800000000000000000000000000000000B2
S30D000000480000000000000000AA
S311000000580B6C62000B600210520D0000E1
S315000000645C9500070B54020003200B400210DCD5FC
S315000000740024E28052098B1302000B000210440094
S31500000084CC2301003344000252050B256200E21022
S315000000940B2002105205A201E00100008B5302005E
S315000000A4FC9700070B4002107C5600244C480020A5
S315000000B47C1500840B200280FC1600247CD70004E7
S315000000C4EF600220E2C41B0829842B0002200B20C7
S315000000D402200B200290FCD50024FC5400844CE939
S315000000E40A04331C0045EF600290C41C938333302A
S315000000F4803C9BA303001BFC112056B49FBE0A043C
S31500000104E00844343A670007939313B6B313002DFB
S31500000114331810F8C45CBF378A009A3C934B3A6A8A
S315000001244C47030100395C270321330800EE4C1DBC
S315000001340C002F220A045A04CC5C0080002BCC1D30
S315000001440C005A24102B4C340401EF0C02045209FF
S31500000154C41C3F210A0210C44C0C0010BA6310C020
S31500000164939313B6B31310D53B640010101B6CD7CE
S315000001740004EC1600246C560024ECD500246C15FF
S315000001840084EC5400841BB407246C9400044F19B7
S3150000019402045209E0DED49CE0C94C14040152095D
S315000001A4E0D8C41C3320100E443C33640010E21C17
S315000001B45C2C00105F0502104CEC0010331C1096EA
S315000001C4E0D7441CEF7C0280E2E0E0F90300E0FBA8
S315000001D8E00100000000000000000000D804000054
S315000001E848050000B80500000000000000000000F7
S315000001F800000000000000000000000000000000F1
S31500000208000000000000000000000000E0180000E8
S3150000021800000000000000000000000000000000D0
S3150000022800000000000000000000000000000000C0
S3150000023800000000000000000000000000000000B0
S3150000024800000000000000000000000000000000A0
S315000002580000000000000000000000000000000090
S315000002680000000000000000000000000000000080
S315000002780000000000000000000000000000000070
S31500000288000000000000000001000000000000005F
S315000002980E33CDAB34126DE6ECDE05000B00000024
S315000002A80000000000000000000000000000000040
S315000002B80000000000000000000000000000000030
S315000002C80000000000000000000000000000000020
S315000002D80000000000000000000000000000000010
S30B00000628E20FE8FFFFFFF0
S3150000062E5CD600278B1772000B00021052010B06C8
S3150000063E82010B00021052014CD600241BB4022478
S3090000064E4F19020434
S315000006600BBEF2270BA00230EF7402240B1D820191
S315000006700B0002100B3E82010B20021003400360A8
S31500000680FC4000023AA410FD0B5B12000B40021066
S3150000069044488B2D82010B2002101B0A2900DC0026
S315000006A0000123007C090500CB4562000B400210C7
S315000006B05209EB1FF20F0F0502040B1962000B0023
S315000006C002100F010204D2010300032003400B684D
S315000006D0F2000B600210520D8B6C02000B600210D0
S315000006E0520DB201000000000000000000000000F2
S315000006F08B138201EB3382010B0002100B200210D8
S315000007003A243B47000020034F1902040B20020045
S315000007100B200210334400F94205A2018B1382011B
S315000007208B3382010B0002100B2002103A244E2458
S31500000730E6479A282E24334410034F1902040B402F
S3150000074002000B400210336800F94209FC950007CD
S315000007507CD500040BFD82010BE00210041CDCD5E5
S315000007600024332010220BD282018BB282010BC0EF
S3150000077002108B9D82010BA002103AB70B8002106B
S315000007804EB4441093B7BA22300993005620C138AC
S31500000790541052054410BA2250F90B1E62000B0089
S315000007A0021052012300141C6CD50004CCD5002481
S315000007B01BB403246C9400044F1902040B1382012A
S315000007C00B00021044205CD50027334400080B20A0
S315000007D002000B2002103344000252058B03720004
S315000007E04CD500240B0002101BB401244201A201C7
S315000007F0E3411F3D12005A25336410FC1602032103
S31500000800FA000F011200E3211F1D1200DA00334027
S3150000081010FC4F190204A2015CD500270B401207F9
S315000008200B400210636C54680B8102200B8042302F
S315000008308B6012070B6002105C8C00200B8102207B
S315000008400B8102300B6112070B6002105C8C0020DA
S315000008500B9932200B81423E8B6112070B6002100E
S315000008605C8C00200B6212070B600210540C8B028A
S3150000087012070B0002105420E2080B3E72000B20F8
S315000008800210520503004CD500241BB401244F1955
S315000008900204A201FC9500077CD50004FCD40024C8
S315000008A056200BE512270BE002309FFC0A2403803A
S315000008B01BE005000BA512070BA0021056FC9AF7C9
S315000008C00BC382000BC002105610447C1F5E0A0444
S315000008D04434D6244C4A05001A0C9A2852191B9007
S315000008E002003B10200010F16CD50004ECD400246B
S315000008F01BB403246C9400044F190204FC960007F1
S315000009007CD60004FC1500247C550024FCD400246D
S315000009105A0003C0030812C003000B6512070B60E0
S31500000920021003401B2300005624D14C93003B8049
S31500000930022010F903000B8562010B800210521190
S315000009400B3C22070B20021054040B1912070B0054
S3150000095002104400E32003410B6722010B600210E2
S31500000960520D030052118B3C22070B200210540437
S3150000097076D803800B3912270B2002300B1A122768
S315000009800B0002300BF822210BE002300BE0420094
S315000009900BA00202E3004C2400041A264C4000047B
S315000009A01A4B03705F1D02049A93BA1210F40300E7
S315000009B00B8562010B80021052110B3D22070B20A2
S315000009C00210540403008B3282000B2002105205E1
S315000009D0030052118B3D22070B20021054040B71A9
S315000009E012270B6002300B9912070B800210EF2CB6
S315000009F002042360CC44000254683F860A2010FBA0
S31500000A0003400B6512070B6002101B2B00005624D7
S31500000A109A2C44043B80002090FD93483B0802003A
S31500000A2010F58B1912070B0002104400E320034156
S31500000A300B6722010B600210520D03A08B5912277F
S31500000A400B4002300B3A12270B2002300B182221E2
S31500000A500B0002300BE042200BE00202E3004C28C0
S31500000A6000049A264C4400041A4B03705F010204EA
S31500000A709FB78A00BA3710F323008B3282000B200F
S31500000A8002105205EF0C02044340CC2000025444ED
S31500000A903F900A2010FB03400B6512070B60021003
S31500000AA01B2B000056249A2C4404BB80002090FD8A
S31500000AB093483B08020010F56CD60004EC150024A0
S31500000AC06C550024ECD400241BB405246C9400045B
S31500000AD04F1902040B2512070B2002104424BB46B3
S31500000AE0000060680BD022400B0002600B591247D1
S31500000AF00B4002500B3002070B2002107F8006408D
S31500000B001F860A410BB482410BA00250EFF0024847
S31500000B100B4042600B302262E0481F2C0A084C480A
S31500000B2000089A68C9080040CC2C00404C90002868
S31500000B302F0287482F868728D9080040DC8C0020A2
S31500000B401B0001003B20300010E91B18E0084C2870
S31500000B5000081A444C7400085164CC340008D428A8
S31500000B601B0001003F580A0810F31B383048EF18E5
S31500000B7002084C2800081A4449840020CC0800408A
S31500000B804C7C0008AF910724AF6107085984002008
S31500000B90D4681B000100BF200A0110EC1FD98A4946
S31500000BA0BF588A09088A0000EF00020C1B78B0487B
S31500000BB0E0B5BB440100901C0BD022400B00026044
S31500000BC00B5912470B4002500B3002070B20021044
S31500000BD07F8006401F860A410BB482410BA002505B
S31500000BE0EFF002480B4042600B302262E0610300E6
S31500000BF00B3912470B2002500B5482010B40021096
S31500000C000B0002424C2400081A644C8800205984C8
S31500000C100020C428D42C1B0001003F200A0110F339
S31500000C20E04C1F2C0A084C4800089A68C908004086
S31500000C30CC2C00404C9000282F0287482F8687280E
S31500000C40D9080040DC8C00201B0001003B4030002E
S31500000C5010E91B18E0084C2800081A444C740008D8
S31500000C605164CC340008D4281B0001003F230A013C
S31500000C7010F31B383048EF1802084C2800081A44B5
S31500000C8049840020CC0800404C7C0008AF91072422
S31500000C90AF61070859840020D4681B000100BF40DB
S31500000CA00A0110EC1FD98A49BF188A090006EF000D
S31500000CB0020C1B78B048E0B64F190204FC970007F7
S31500000CC07CD70004FC1600247C560024FCD50024A6
S31500000CD07C1500840B0002000B00E2180B231207A0
S31500000CE00B20021054048B2312070B20021054040D
S31500000CF00B2002004B20E2180B0412070B00021017
S31500000D0054200B2002008B20E2188B0412070B00E4
S31500000D10021054208B0802000B00021044208B05A1
S31500000D2012070B00021054200B0902000B000210E0
S31500000D3044000B4612070B40021054088B47020072
S31500000D400B4002104C0800800B4002000B410210C1
S31500000D5092031F0102407F010A480F0102409201DF
S31500000D6092031F2102407F250A480F21024092016B
S31500000D70AF2007101A040B2512070B20021054048B
S31500000D800B2002020B2002100B1912070B00021097
S31500000D9054200B2002040B2002108B1912070B00A3
S31500000DA0021054200B2002060B2002100B1A120709
S31500000DB00B00021054200300DC1500043B200050F9
S31500000DC0006203E00B6002200B0802200B000230D9
S31500000DD04C2000840BC512070BC002108B5912273A
S31500000DE00B4002300BA652010BA002100B39122742
S31500000DF00B200230920312215F268A000221920103
S31500000E005C7500243B0400500035969C1B9216002E
S31500000E101A9A1BFC03205FFC06249FFB8A20EF2CFA
S31500000E200204CC1500044C4800045215DC100001E5
S31500000E30CC1500044C3500044C44000452155C12D9
S31500000E40000244581B4B00005648CC1500044C3594
S31500000E5000041A595215DC1C000693FC4C150004BC
S31500000E6093005C150004E2204C4000043F210A4038
S31500000E7050D9CC1500049300DC1500043F200A105D
S31500000E8020C0E007920312415F4A8A0002419201A4
S31500000E90230003201B5601041B7401048B9352216B
S31500000EA00B8002305F110204CC1500044C3500049F
S31500000EB00B4712070B4002100B6652010B60021023
S31500000EC0520D0B3012070B20021054040B1A120796
S31500000ED00B0002104400E3200B5112010B400210DC
S31500000EE0520903200B0712070B00021054200300BF
S31500000EF00B6512070B60021003401B2300005624EB
S31500000F00D14C93003B20024010F98B4412070B4052
S31500000F100210446803000320740C44082320542163
S31500000F206CD70004EC1600246C560024ECD5002483
S31500000F306C1500841BB407246C9400044F1902043A
S31500000F40FC9500077CD50004DCD500248B17C20075
S31500000F500B00021052010B0512070B000210440091
S31500000F60332010598B0412070B000210444064080A
S31500000F70FA00336000FD0300EB3FF20FEB3FF21F78
S31500000F80CB9FF20F2B9EF21F8B4762010B40021084
S31500000F905209030023200B4B62010B400210520939
S31500000FA00B3B22070B20021054048B0412070B0084
S31500000FB002104400032054210B0802000B0002100B
S31500000FC044408B0702000B00021044200B00020075
S31500000FD00B01021092031F8102207F900A240F81C9
S31500000FE00220920192031F0102407F000A480F016E
S31500000FF002409201A72893240B0712070B00021048
S31500001000542092031F0102405F020A480F0102406A
S315000010109201E0080B2712070B20021044043360EC
S3150000102000FE0B1012070B00021044000BC512073E
S315000010300BC0021044389324542003000BA5620110
S315000010400BA0021052158B3B22070B2002105404F2
S3150000105003008BFF82000BE00210521D03005215A5
S315000010600B3E22070B2002105404E3008B3AA20029
S315000010700B2002105205030052158B3E22070B204F
S31500001080021054042300521D030052150B3F220781
S315000010900B200210540444183B800020105A0B0801
S315000010A002000B00021044408B0702000B000210E6
S315000010B044200B0002000B01021092031F010240A4
S315000010C07F000A480F010240920192031F8102200D
S315000010D07F900A240F8102209201A74893480B278C
S315000010E012070B20021044043A6100FE03200B078E
S315000010F012070B00021054200B1012070B000210EF
S31500001100442044043B80002060FD0300CB9FF20F87
S315000011102B9EF21F92031F0102405F020A480F0135
S31500001120024092018B3262010B20021052058B3F66
S3150000113022070B20021054048B0412070B00021026
S315000011404420234054454440030003207408E01023
S315000011500B1012070B000210442044043B800020B1
S3150000116060FD03200B0712070B000210542003003A
S315000011706CD50004CCD500241BB403246C94000465
S315000011804F190204000000000B5582010B400210AB
S3150000119044680BC002405460C4482360D440AA6C23
S315000011A04C6000402E6CCC4000400B8802270B00A0
S315000011B002477F2C064056241BA0FF400BC0025856
S315000011C00B8002300B000250C9900024C900004871
S315000011D00F590A499F200A01D96000419FA60A4972
S315000011E01B240148E240DC440040B30C6003E023CA
S315000011F0E2404468CC8800404408C408AF71070444
S315000012004C680040C4281F450A481B080100AF303F
S3150000121007044F620709BF2107095469D4294469A5
S31500001220C429596500088F380A08DC2800083F34AD
S315000012300A0810DF4F1902042BC00240AF380A0813
S315000012409BE7FF407FC406403B3C00080BA00240E2
S315000012509033A201A201A2011F940E282F93062407
S31500001260BF120A4590223B080040901FBF920A25F4
S315000012707F900624E22003604C4400401F068A400B
S31500001280CC24004049868040CC6000485C84004005
S31500001290DC64004059468040936C1F270A01DC201D
S315000012A000483F0D0A4010E99BB400481B000100AE
S315000012B0BF370A0910D24F190204A201000000002C
S315000012C02BE002402FFC0A483B9C0028902A9BDF1B
S315000012D0FF482FD806489FD806481BDA03481B86C6
S315000012E001201FC70A41CC5000454C300044CC7148
S315000012F000454C1100451B9002241FAD07499F80F5
S3150000130007490F4D07490F040749DCB200455C92B7
S315000013100045DC5300455C1300453F530A4510E485
S315000013209B23FFC02FEC0EA0BB04005803024B000A
S3150000133002604B8002A02B0002C0989800003F106C
S3150000134006742FFC0EB43B7C004890307F70061468
S315000013509A659F9006541B6E00001B0600000B80CA
S315000013600220A201A201A201CC2C0041CC600041C6
S315000013704C0C00404C4000409F6C07491F908A254A
S315000013803F7E8AC81F480749DC6C00415D4E00411C
S31500001390CC6000414C4000408F2C07490F010749A3
S315000013A0DC2000415D02004160E0BBB00054905378
S315000013B07FBC06B49F4A8A621B6601601B4A006CAA
S315000013C07F4006CC7FD006B42B200260A201A2018A
S315000013D0BF9C8A2990374C88004CCC68004DEF0C96
S315000013E0020C1F6F8A0EEF24024CA201A201A20179
S315000013F0CC8C00214C4C0040CCA00041AF110745DD
S315000014004CC000402F9207251F248A49BF7C0AC979
S315000014104F0A0749BF8907291FB407491F5A87483A
S31500001420DCAC00415D4D0043CCA000414C40004087
S315000014300F1407490F910725DC0000415D81002349
S3150000144060D89B24006C1B6C016C9F4A8A6E3F0619
S315000014508A0E10BF9B0000D8BF000A5B0005EF8014
S3150000146002ACE86EFFFF7F00060C41641F040A40D1
S315000014704C440040CC800028CC2400409F490748BB
S315000014802FDC0E54BB60004C1F2687485944004091
S31500001490DC200048CC04004044040F9007258761F7
S315000014A0DC840020546490409B00000C7FD80648E2
S315000014B076001F4B0A011A041BA600409F00066C0B
S315000014C01B8A00201FB48A491B4200001B0601002C
S315000014D0CC280001CC1000454D5300454C28004057
S315000014E02F640701CC8000412F2507014C60004086
S315000014F04F6507093F2407099F3107489F0C074896
S31500001500DC2800415C090042CC2000414C00004030
S31500001510BF6A0AC18F6507080F240701DC60000156
S315000015205C21000210D64F190204A201000000003F
S315000015300B6002000B7EF21F5CD60027DA69EF8093
S315000015400220E208101BBB13FF0423000260166F83
S31500001550066F3B0C00401018BB07FF40120C3360AF
S3150000156010130B0602000B0002104400DF90062445
S315000015701A041F028A0096027A014CD600241BB474
S3150000158002244F1902040B058201DC5500040B00EE
S3150000159002105201CC550004E0EFA2010B080240F4
S315000015A03F8406200B0002501F900A244C2000485E
S315000015B00B5682410B1982415F9006240B40025064
S315000015C00B000250498A8048490280488B870220D6
S315000015D00B8002304C7000448B8802200B80023056
S315000015E04C9000249B6FFF481F828A280B090240FB
S315000015F00B0002504C0000489B47FF481F100A4949
S315000016003B84004010083F240A0920053600930356
S315000016101F900A24DF910A255C8800205F010A4991
S315000016205C0C00404F1902045A0010051F190204F1
S315000016304F1902041F1D02044F1902045A00100715
S31500001640E2040F3902044F190204A201E2040F3D1D
S3150000165002044F190204A2015A00100F1261EB0195
S31500001660F20FEB1FF21F96245A6C0261FA6C0261AC
S315000016701F1902044F1902041261EB1F020FEB1F20
S31500001680F21F16255A6C0261FA6C02611F1D0204D4
S315000016904F1902045C950007DCD500243320002492
S315000016A00B0042008B8572010B800210EB010210C9
S315000016B05211EB3F020FEB3FF21FDA208B547201FF
S315000016C00B004200EB0102100B40021052098B077F
S315000016D04200E230CCD500244C950004EB01021008
S315000016E01BB4012442050B0042008B8572010B805E
S315000016F00210EB0102105211EB21F20FEB3FF21F29
S31500001700DA208B5472010B004200EB0102100B40F1
S31500001710021052090B074200E230CCD500244C954A
S315000017200004EB0102101BB401244205E2400B0049
S315000017304200EB0102105CD600273A2800288B00F5
S315000017404200EB0102103A2800178B0802000B2911
S3150000175002000B0002100B2002100B66520144001F
S3150000176044240B600210520D4CD6002444001BB4D6
S3150000177002244F1902041205DC150004CC150004DE
S315000017804CD600241BB402244F1902041201DC15A6
S315000017900004CC1500044CD600241BB402244F19B7
S315000017A00204A201E2400B0042005C960007EB0136
S315000017B00210E284DC350004DCD600243A28002A34
S315000017C08B004200EB0102103A2800198B08020038
S315000017D00B2902000B0002100B2002100B665201AF
S315000017E0440044240B600210520D5480CCD60024D1
S315000017F04C9600041BB402244F190204CC150004B5
S315000018000205CCD600244C9600041BB402244F19C2
S315000018100204CC1500040201CCD600244C96000428
S315000018201BB402244F1902041F0532004F1902048B
S315000018308B1182010B000210CC0000015C950007A1
S31500001840DCD500248B908201B3230B8002100006A6
S315000018505201CC100003B32310FCCCD500244C95C8
S3110000186000041BB401244F190204A2016D
S3150000186C5CD600278B0972000B00021052014CD675
S30F0000187C00241BB402244F190204D5
S30D00001888FFFFFFFF0000000056
S30D00001890FFFFFFFF000000004E
S309000018980000000046
S315000018A000000000000000000000803F0000000073
S315000018B0FFFFFFFF01000000FFFFFFFF0100000028
S315000018C00000000000000000000000000000000012
S315000018D00000000000000000FFFFFFFF0100000005
S30D000018E04300000000000000B7
S3150000200000000000000000000000000000000000CA
S3150000201000000000000000000000000000000000BA
S3150000202000000000000000000000000000000000AA
S31500002030000000000000000000000000000000009A
S315000070000000000000000000000080BFF30435BF50
S3150000701015EFC3BEC2C547BE36BDC8BD30FB48BDB1
S31500007020B00AC9BC900E49BC880FC9BBC60F49BB84
S31500007030D50FC9BAD90F49BADA0FC9B9DB0F49B9A1
S315000070400000803F000080BF9595E624F304353F9D
S315000070505E836C3FBE147B3F6DC47E3F0FB17F3FA6
S3150000706043EC7F3F11FB7F3FC4FE7F3FB1FF7F3F75
S31500007070ECFF7F3FFBFF7F3FFFFF7F3F0000803F2E
S315000070800000803F0000003F0000803E0000003E00
S315000070900000803D0000003D0000803C0000003CF8
S315000070A00000803B0000003B0000803A0000003AF0
S315000070B000008039000000390000803800000038E8
S315000070C0000000000000803F0000003FABAAAA3E7F
S315000070D00000803ECDCC4C3EABAA2A3E2549123E4E
S315000070E00000003E398EE33DCDCCCC3D8C2EBA3D22
S315000070F0ABAAAA3DD9899D3D2549923D8988883DFF
S315000071000000000000000000000000000000000079
S315000071100000000000000000000000000000000069
S315000071200000000000000000000000000000000059
S315000071300000000000000000000000000000000049
S315000071400000000000000000000000000000000039
S315000071500000000000000000000000000000000029
S315000071600000000000000000000000000000000019
S315000071700000000000000000000000000000000009
S3150000718000000000000000000000000000000000F9
S3150000719000000000000000000000000000000000E9
S315000071A000000000000000000000000000000000D9
S315000071B000000000000000000000000000000000C9
S315000071C000000000000000000000000000000000B9
S315000071D000000000000000000000000000000000A9
S315000071E00000000000000000000000000000000099
S315000071F00000000000000000000000000000000089
S315000072000000000000000000000000000000000078
S315000072100000000000000000000000000000000068
S315000072200000000000000000000000000000000058
S315000072300000000000000000000000000000000048
S315000072400000000000000000000000000000000038
S315000072500000000000000000000000000000000028
S315000072600000000000000000000000000000000018
S315000072700000000000000000000000000000000008
S3150000728000000000000000000000000000000000F8
S3150000729000000000000000000000000000000000E8
S315000072A000000000000000000000000000000000D8
S315000072B000000000000000000000000000000000C8
S315000072C000000000000000000000000000000000B8
S315000072D000000000000000000000000000000000A8
S315000072E00000000000000000000000000000000098
S315000072F00000000000000000000000000000000088
S70500000000FA
